{"abi":[{"type":"function","name":"batchMint","inputs":[{"name":"options","type":"address[]","internalType":"address[]"},{"name":"amounts","type":"uint256[]","internalType":"uint256[]"}],"outputs":[],"stateMutability":"nonpayable"},{"type":"function","name":"previewBatchMint","inputs":[{"name":"amounts","type":"uint256[]","internalType":"uint256[]"}],"outputs":[{"name":"total","type":"uint256","internalType":"uint256"}],"stateMutability":"pure"},{"type":"event","name":"BatchMintExecuted","inputs":[{"name":"caller","type":"address","indexed":true,"internalType":"address"},{"name":"optionCount","type":"uint256","indexed":false,"internalType":"uint256"},{"name":"totalAmount","type":"uint256","indexed":false,"internalType":"uint256"}],"anonymous":false},{"type":"error","name":"ArrayLengthMismatch","inputs":[]},{"type":"error","name":"ZeroAddress","inputs":[]},{"type":"error","name":"ZeroAmount","inputs":[]}],"bytecode":{"object":"0x60808060405234601557610330908161001a8239f35b5f80fdfe60806040526004361015610011575f80fd5b5f3560e01c8063685731071461009f5763f62d89ac1461002f575f80fd5b3461009b57602036600319011261009b5760043567ffffffffffffffff811161009b576100609036906004016100fe565b5f9182915b80841061007757602083604051908152f35b909161009160019161008a86858761012f565b3590610167565b9301929190610065565b5f80fd5b3461009b57604036600319011261009b5760043567ffffffffffffffff811161009b576100d09036906004016100fe565b6024359167ffffffffffffffff831161009b576100f46100fc9336906004016100fe565b929091610188565b005b9181601f8401121561009b5782359167ffffffffffffffff831161009b576020808501948460051b01011161009b57565b919081101561013f5760051b0190565b634e487b7160e01b5f52603260045260245ffd5b356001600160a01b038116810361009b5790565b9190820180921161017457565b634e487b7160e01b5f52601160045260245ffd5b929190928284036102eb5783156102e55791905f925f925b8584106101de575050505060405191825260208201527f611f26bf2585849cbf69943da0d36aa65af0e05243c378f900b524f05e6c84b260403392a2565b9293919290916001600160a01b036101ff6101fa87898761012f565b610153565b16156102d65761021085838661012f565b35156102c7576102259061008a86848761012f565b936001600160a01b0361023c6101fa83898761012f565b169061024981848761012f565b35823b1561009b575f926044849260405195869384926340c10f1960e01b845233600485015260248401525af180156102bc5761028e575b60019150019291906101a0565b67ffffffffffffffff82116102a857600191604052610281565b634e487b7160e01b5f52604160045260245ffd5b6040513d5f823e3d90fd5b631f2a200560e01b5f5260045ffd5b63d92e233d60e01b5f5260045ffd5b50505050565b63512509d360e11b5f5260045ffdfea26469706673582212209b6120cdf9a12e8785307a99ea630fbebfb928ee7b53e16359c702d50c4c653964736f6c63430008210033","linkReferences":{}},"methodIdentifiers":{"batchMint(address[],uint256[])":"68573107","previewBatchMint(uint256[])":"f62d89ac"},"id":17}